{
  "contractName": "PaymentsReciever",
  "abi": [
    {
      "inputs": [],
      "name": "last_completed_migration",
      "outputs": [
        {
          "internalType": "uint256",
          "name": "",
          "type": "uint256"
        }
      ],
      "stateMutability": "view",
      "type": "function",
      "constant": true
    },
    {
      "inputs": [],
      "name": "owner",
      "outputs": [
        {
          "internalType": "address",
          "name": "",
          "type": "address"
        }
      ],
      "stateMutability": "view",
      "type": "function",
      "constant": true
    },
    {
      "inputs": [
        {
          "internalType": "string",
          "name": "shopHash",
          "type": "string"
        },
        {
          "internalType": "uint256",
          "name": "shopPrice",
          "type": "uint256"
        }
      ],
      "name": "pay",
      "outputs": [],
      "stateMutability": "payable",
      "type": "function",
      "payable": true
    },
    {
      "inputs": [
        {
          "internalType": "address",
          "name": "payer",
          "type": "address"
        }
      ],
      "name": "getPayment",
      "outputs": [
        {
          "internalType": "uint256",
          "name": "amount",
          "type": "uint256"
        },
        {
          "internalType": "string",
          "name": "shopHash",
          "type": "string"
        },
        {
          "internalType": "uint256",
          "name": "price",
          "type": "uint256"
        }
      ],
      "stateMutability": "view",
      "type": "function",
      "constant": true
    },
    {
      "inputs": [
        {
          "internalType": "uint256",
          "name": "amount",
          "type": "uint256"
        },
        {
          "internalType": "address payable",
          "name": "reciever",
          "type": "address"
        }
      ],
      "name": "withdraw",
      "outputs": [],
      "stateMutability": "payable",
      "type": "function",
      "payable": true
    },
    {
      "inputs": [
        {
          "internalType": "uint256",
          "name": "completed",
          "type": "uint256"
        }
      ],
      "name": "setCompleted",
      "outputs": [],
      "stateMutability": "nonpayable",
      "type": "function"
    },
    {
      "inputs": [],
      "name": "repairWithdraw",
      "outputs": [],
      "stateMutability": "nonpayable",
      "type": "function"
    }
  ],
  "bytecode": "0x6080604052336000806101000a81548173ffffffffffffffffffffffffffffffffffffffff021916908373ffffffffffffffffffffffffffffffffffffffff1602179055506000600260006101000a81548160ff02191690831515021790555034801561006b57600080fd5b50610eab8061007b6000396000f3fe60806040526004361061006f5760003560e01c8063445df0ac1161004e578063445df0ac146100e65780638da5cb5b14610111578063901c59531461013c578063fdacd576146101585761006f565b8062f714ce146100745780632045ad5e146100905780633a436e51146100a7575b600080fd5b61008e600480360381019061008991906108b4565b610181565b005b34801561009c57600080fd5b506100a56103c4565b005b3480156100b357600080fd5b506100ce60048036038101906100c99190610932565b61046f565b6040516100dd93929190610a07565b60405180910390f35b3480156100f257600080fd5b506100fb610615565b6040516101089190610a45565b60405180910390f35b34801561011d57600080fd5b5061012661061b565b6040516101339190610a6f565b60405180910390f35b61015660048036038101906101519190610bbf565b61063f565b005b34801561016457600080fd5b5061017f600480360381019061017a9190610c1b565b6106d1565b005b60008054906101000a900473ffffffffffffffffffffffffffffffffffffffff1673ffffffffffffffffffffffffffffffffffffffff163373ffffffffffffffffffffffffffffffffffffffff161461020f576040517f08c379a000000000000000000000000000000000000000000000000000000000815260040161020690610cba565b60405180910390fd5b81600360003373ffffffffffffffffffffffffffffffffffffffff1673ffffffffffffffffffffffffffffffffffffffff168152602001908152602001600020600001541015610294576040517f08c379a000000000000000000000000000000000000000000000000000000000815260040161028b90610d26565b60405180910390fd5b60001515600260009054906101000a900460ff161515146102ea576040517f08c379a00000000000000000000000000000000000000000000000000000000081526004016102e190610d92565b60405180910390fd5b6001600260006101000a81548160ff02191690831515021790555081600360003373ffffffffffffffffffffffffffffffffffffffff1673ffffffffffffffffffffffffffffffffffffffff16815260200190815260200160002060000160008282546103579190610de1565b925050819055508073ffffffffffffffffffffffffffffffffffffffff166108fc839081150290604051600060405180830381858888f193505050501580156103a4573d6000803e3d6000fd5b506000600260006101000a81548160ff0219169083151502179055505050565b60008054906101000a900473ffffffffffffffffffffffffffffffffffffffff1673ffffffffffffffffffffffffffffffffffffffff163373ffffffffffffffffffffffffffffffffffffffff1614610452576040517f08c379a000000000000000000000000000000000000000000000000000000000815260040161044990610cba565b60405180910390fd5b6000600260006101000a81548160ff021916908315150217905550565b6000606060008060009054906101000a900473ffffffffffffffffffffffffffffffffffffffff1673ffffffffffffffffffffffffffffffffffffffff163373ffffffffffffffffffffffffffffffffffffffff1614610504576040517f08c379a00000000000000000000000000000000000000000000000000000000081526004016104fb90610cba565b60405180910390fd5b6000600360008673ffffffffffffffffffffffffffffffffffffffff1673ffffffffffffffffffffffffffffffffffffffff1681526020019081526020016000206040518060600160405290816000820154815260200160018201805461056a90610e44565b80601f016020809104026020016040519081016040528092919081815260200182805461059690610e44565b80156105e35780601f106105b8576101008083540402835291602001916105e3565b820191906000526020600020905b8154815290600101906020018083116105c657829003601f168201915b505050505081526020016002820154815250509050806000015193508060200151925080604001519150509193909250565b60015481565b60008054906101000a900473ffffffffffffffffffffffffffffffffffffffff1681565b604051806060016040528034815260200183815260200182815250600360003373ffffffffffffffffffffffffffffffffffffffff1673ffffffffffffffffffffffffffffffffffffffff1681526020019081526020016000206000820151816000015560208201518160010190805190602001906106bf929190610769565b50604082015181600201559050505050565b60008054906101000a900473ffffffffffffffffffffffffffffffffffffffff1673ffffffffffffffffffffffffffffffffffffffff163373ffffffffffffffffffffffffffffffffffffffff161461075f576040517f08c379a000000000000000000000000000000000000000000000000000000000815260040161075690610cba565b60405180910390fd5b8060018190555050565b82805461077590610e44565b90600052602060002090601f01602090048101928261079757600085556107de565b82601f106107b057805160ff19168380011785556107de565b828001600101855582156107de579182015b828111156107dd5782518255916020019190600101906107c2565b5b5090506107eb91906107ef565b5090565b5b808211156108085760008160009055506001016107f0565b5090565b6000604051905090565b600080fd5b600080fd5b6000819050919050565b61083381610820565b811461083e57600080fd5b50565b6000813590506108508161082a565b92915050565b600073ffffffffffffffffffffffffffffffffffffffff82169050919050565b600061088182610856565b9050919050565b61089181610876565b811461089c57600080fd5b50565b6000813590506108ae81610888565b92915050565b600080604083850312156108cb576108ca610816565b5b60006108d985828601610841565b92505060206108ea8582860161089f565b9150509250929050565b60006108ff82610856565b9050919050565b61090f816108f4565b811461091a57600080fd5b50565b60008135905061092c81610906565b92915050565b60006020828403121561094857610947610816565b5b60006109568482850161091d565b91505092915050565b61096881610820565b82525050565b600081519050919050565b600082825260208201905092915050565b60005b838110156109a857808201518184015260208101905061098d565b838111156109b7576000848401525b50505050565b6000601f19601f8301169050919050565b60006109d98261096e565b6109e38185610979565b93506109f381856020860161098a565b6109fc816109bd565b840191505092915050565b6000606082019050610a1c600083018661095f565b8181036020830152610a2e81856109ce565b9050610a3d604083018461095f565b949350505050565b6000602082019050610a5a600083018461095f565b92915050565b610a69816108f4565b82525050565b6000602082019050610a846000830184610a60565b92915050565b600080fd5b600080fd5b7f4e487b7100000000000000000000000000000000000000000000000000000000600052604160045260246000fd5b610acc826109bd565b810181811067ffffffffffffffff82111715610aeb57610aea610a94565b5b80604052505050565b6000610afe61080c565b9050610b0a8282610ac3565b919050565b600067ffffffffffffffff821115610b2a57610b29610a94565b5b610b33826109bd565b9050602081019050919050565b82818337600083830152505050565b6000610b62610b5d84610b0f565b610af4565b905082815260208101848484011115610b7e57610b7d610a8f565b5b610b89848285610b40565b509392505050565b600082601f830112610ba657610ba5610a8a565b5b8135610bb6848260208601610b4f565b91505092915050565b60008060408385031215610bd657610bd5610816565b5b600083013567ffffffffffffffff811115610bf457610bf361081b565b5b610c0085828601610b91565b9250506020610c1185828601610841565b9150509250929050565b600060208284031215610c3157610c30610816565b5b6000610c3f84828501610841565b91505092915050565b7f546869732066756e6374696f6e206973207265737472696374656420746f207460008201527f686520636f6e74726163742773206f776e657200000000000000000000000000602082015250565b6000610ca4603383610979565b9150610caf82610c48565b604082019050919050565b60006020820190508181036000830152610cd381610c97565b9050919050565b7f4e6f7420656e6f756768206d6f6e657900000000000000000000000000000000600082015250565b6000610d10601083610979565b9150610d1b82610cda565b602082019050919050565b60006020820190508181036000830152610d3f81610d03565b9050919050565b7f576974686472617720697320696e616374697665000000000000000000000000600082015250565b6000610d7c601483610979565b9150610d8782610d46565b602082019050919050565b60006020820190508181036000830152610dab81610d6f565b9050919050565b7f4e487b7100000000000000000000000000000000000000000000000000000000600052601160045260246000fd5b6000610dec82610820565b9150610df783610820565b925082821015610e0a57610e09610db2565b5b828203905092915050565b7f4e487b7100000000000000000000000000000000000000000000000000000000600052602260045260246000fd5b60006002820490506001821680610e5c57607f821691505b602082108103610e6f57610e6e610e15565b5b5091905056fea2646970667358221220b1814d211e6f82fc479d2879a75516ff1f183456fff1f1841a1da3d85e44796564736f6c634300080d0033",
  "immutableReferences": {},
  "source": "// SPDX-License-Identifier: MIT\npragma solidity 0.8.13;\n\ncontract PaymentsReciever {\n    address public owner = msg.sender;\n    uint public last_completed_migration;\n\n    bool private withdraw_inactive = false;\n\n    struct Payment {\n        uint amount;\n        string shopHash;\n        uint price;\n    }\n\n    mapping(address => Payment) payments;\n\n    modifier restricted() {\n        require(\n            msg.sender == owner,\n            \"This function is restricted to the contract's owner\"\n        );\n        _;\n    }\n\n    function pay(string memory shopHash, uint shopPrice) public payable {\n        payments[msg.sender] = Payment(msg.value, shopHash, shopPrice);\n    }\n\n    function getPayment(address payer) public view restricted returns (uint amount, string memory shopHash, uint price) {\n        Payment memory payment = payments[payer];\n        amount = payment.amount;\n        shopHash = payment.shopHash;\n        price = payment.price;\n    }\n\n    function withdraw(uint amount, address payable reciever) public payable restricted {\n        require(\n            payments[msg.sender].amount >= amount,\n            \"Not enough money\"\n        );\n        require(withdraw_inactive == false, \"Withdraw is inactive\");\n\n        withdraw_inactive = true;\n        payments[msg.sender].amount -= amount;\n        reciever.transfer(amount);\n        withdraw_inactive = false;\n    }\n\n    function setCompleted(uint completed) public restricted {\n        last_completed_migration = completed;\n    }\n\n    function repairWithdraw() public restricted {\n        withdraw_inactive = false;\n    }\n}",
  "sourcePath": "/Users/dmitrii.semenov/Documents/GitHub/dmitriys1/blockchain-developer/Week5/CryptoPayments/smart_contracts/contracts/PaymentsReciever.sol",
  "compiler": {
    "name": "solc",
    "version": "0.8.13+commit.abaa5c0e.Emscripten.clang"
  },
  "schemaVersion": "3.4.7",
  "updatedAt": "2022-05-25T11:35:58.434Z",
  "networkType": "ethereum",
  "devdoc": {
    "kind": "dev",
    "methods": {},
    "version": 1
  },
  "userdoc": {
    "kind": "user",
    "methods": {},
    "version": 1
  }
}